{
  "contractName": "FlightSuretyData",
  "abi": [
    {
      "constant": true,
      "inputs": [],
      "name": "INSURANCE_STATUS_IN_PROGRESS",
      "outputs": [
        {
          "name": "",
          "type": "uint256"
        }
      ],
      "payable": false,
      "stateMutability": "view",
      "type": "function"
    },
    {
      "constant": true,
      "inputs": [],
      "name": "INSURANCE_STATUS_CLOSED",
      "outputs": [
        {
          "name": "",
          "type": "uint256"
        }
      ],
      "payable": false,
      "stateMutability": "view",
      "type": "function"
    },
    {
      "constant": true,
      "inputs": [],
      "name": "MAX_AUTO_REGISTERED_AIRLINES",
      "outputs": [
        {
          "name": "",
          "type": "uint256"
        }
      ],
      "payable": false,
      "stateMutability": "view",
      "type": "function"
    },
    {
      "constant": true,
      "inputs": [],
      "name": "INSURANCE_STATUS_UNKNOWN",
      "outputs": [
        {
          "name": "",
          "type": "uint256"
        }
      ],
      "payable": false,
      "stateMutability": "view",
      "type": "function"
    },
    {
      "constant": true,
      "inputs": [],
      "name": "INSURANCE_STATUS_PAID",
      "outputs": [
        {
          "name": "",
          "type": "uint256"
        }
      ],
      "payable": false,
      "stateMutability": "view",
      "type": "function"
    },
    {
      "inputs": [],
      "payable": false,
      "stateMutability": "nonpayable",
      "type": "constructor"
    },
    {
      "constant": true,
      "inputs": [],
      "name": "isOperational",
      "outputs": [
        {
          "name": "",
          "type": "bool"
        }
      ],
      "payable": false,
      "stateMutability": "view",
      "type": "function"
    },
    {
      "constant": false,
      "inputs": [
        {
          "name": "mode",
          "type": "bool"
        }
      ],
      "name": "setOperatingStatus",
      "outputs": [],
      "payable": false,
      "stateMutability": "nonpayable",
      "type": "function"
    },
    {
      "constant": false,
      "inputs": [
        {
          "name": "contractAddress",
          "type": "address"
        }
      ],
      "name": "authorizeCaller",
      "outputs": [],
      "payable": false,
      "stateMutability": "nonpayable",
      "type": "function"
    },
    {
      "constant": true,
      "inputs": [],
      "name": "getAirlinesCount",
      "outputs": [
        {
          "name": "",
          "type": "uint256"
        }
      ],
      "payable": false,
      "stateMutability": "view",
      "type": "function"
    },
    {
      "constant": false,
      "inputs": [
        {
          "name": "airlineAddress",
          "type": "address"
        }
      ],
      "name": "registerAirline",
      "outputs": [],
      "payable": false,
      "stateMutability": "nonpayable",
      "type": "function"
    },
    {
      "constant": false,
      "inputs": [
        {
          "name": "airlineAddress",
          "type": "address"
        },
        {
          "name": "voterAddress",
          "type": "address"
        }
      ],
      "name": "voteAirline",
      "outputs": [
        {
          "name": "",
          "type": "bool"
        }
      ],
      "payable": false,
      "stateMutability": "nonpayable",
      "type": "function"
    },
    {
      "constant": false,
      "inputs": [
        {
          "name": "passenger",
          "type": "address"
        },
        {
          "name": "flightKey",
          "type": "bytes32"
        }
      ],
      "name": "buy",
      "outputs": [],
      "payable": true,
      "stateMutability": "payable",
      "type": "function"
    },
    {
      "constant": false,
      "inputs": [
        {
          "name": "flightKey",
          "type": "bytes32"
        }
      ],
      "name": "creditInsurees",
      "outputs": [],
      "payable": false,
      "stateMutability": "nonpayable",
      "type": "function"
    },
    {
      "constant": false,
      "inputs": [
        {
          "name": "flightKey",
          "type": "bytes32"
        }
      ],
      "name": "closeInsurance",
      "outputs": [],
      "payable": false,
      "stateMutability": "nonpayable",
      "type": "function"
    },
    {
      "constant": true,
      "inputs": [
        {
          "name": "flightKey",
          "type": "bytes32"
        }
      ],
      "name": "getInsurancePayoutValue",
      "outputs": [
        {
          "name": "",
          "type": "uint256"
        }
      ],
      "payable": false,
      "stateMutability": "view",
      "type": "function"
    },
    {
      "constant": true,
      "inputs": [
        {
          "name": "passengerAddress",
          "type": "address"
        }
      ],
      "name": "getPassengerBalance",
      "outputs": [
        {
          "name": "",
          "type": "uint256"
        }
      ],
      "payable": false,
      "stateMutability": "view",
      "type": "function"
    },
    {
      "constant": false,
      "inputs": [
        {
          "name": "passengerAddress",
          "type": "address"
        }
      ],
      "name": "pay",
      "outputs": [],
      "payable": false,
      "stateMutability": "nonpayable",
      "type": "function"
    },
    {
      "constant": false,
      "inputs": [
        {
          "name": "airlineAddress",
          "type": "address"
        }
      ],
      "name": "fund",
      "outputs": [],
      "payable": true,
      "stateMutability": "payable",
      "type": "function"
    },
    {
      "constant": true,
      "inputs": [
        {
          "name": "airlineAddress",
          "type": "address"
        }
      ],
      "name": "isAirline",
      "outputs": [
        {
          "name": "",
          "type": "bool"
        }
      ],
      "payable": false,
      "stateMutability": "view",
      "type": "function"
    }
  ],
  "bytecode": "0x6080604052600460005560006001556001600255600160035560026004556001600560146101000a81548160ff021916908315150217905550600060075534801561004957600080fd5b5033600560006101000a81548173ffffffffffffffffffffffffffffffffffffffff021916908373ffffffffffffffffffffffffffffffffffffffff160217905550611c4c8061009a6000396000f300608060405260043610610107576000357c0100000000000000000000000000000000000000000000000000000000900463ffffffff16806305e931f41461010c5780630c11dedd146101375780630e248a111461017a578063110466ed146101d557806323024408146102045780632c388d5d1461023a578063385de7871461027d5780637430acf9146102d45780639058e228146102ff5780639459489f14610343578063a283b37f1461036e578063a4c8e2fd14610399578063bb4063a0146103c4578063bba1f121146103f5578063bd675ad914610420578063bdfd987714610465578063c5323de5146104a8578063cc2f6eba14610523578063cd905dff14610554575b600080fd5b34801561011857600080fd5b50610121610583565b6040518082815260200191505060405180910390f35b34801561014357600080fd5b50610178600480360381019080803573ffffffffffffffffffffffffffffffffffffffff16906020019092919050505061058d565b005b34801561018657600080fd5b506101bb600480360381019080803573ffffffffffffffffffffffffffffffffffffffff1690602001909291905050506107a0565b604051808215151515815260200191505060405180910390f35b3480156101e157600080fd5b506102026004803603810190808035151590602001909291905050506108aa565b005b610238600480360381019080803573ffffffffffffffffffffffffffffffffffffffff16906020019092919050505061098c565b005b34801561024657600080fd5b5061027b600480360381019080803573ffffffffffffffffffffffffffffffffffffffff169060200190929190505050610c70565b005b34801561028957600080fd5b506102be600480360381019080803573ffffffffffffffffffffffffffffffffffffffff169060200190929190505050610e41565b6040518082815260200191505060405180910390f35b3480156102e057600080fd5b506102e9610f3b565b6040518082815260200191505060405180910390f35b610341600480360381019080803573ffffffffffffffffffffffffffffffffffffffff1690602001909291908035600019169060200190929190505050610f41565b005b34801561034f57600080fd5b506103586110a3565b6040518082815260200191505060405180910390f35b34801561037a57600080fd5b506103836110a9565b6040518082815260200191505060405180910390f35b3480156103a557600080fd5b506103ae6110af565b6040518082815260200191505060405180910390f35b3480156103d057600080fd5b506103f360048036038101908080356000191690602001909291905050506110b5565b005b34801561040157600080fd5b5061040a6111b8565b6040518082815260200191505060405180910390f35b34801561042c57600080fd5b5061044f60048036038101908080356000191690602001909291905050506111be565b6040518082815260200191505060405180910390f35b34801561047157600080fd5b506104a6600480360381019080803573ffffffffffffffffffffffffffffffffffffffff1690602001909291905050506112cb565b005b3480156104b457600080fd5b50610509600480360381019080803573ffffffffffffffffffffffffffffffffffffffff169060200190929190803573ffffffffffffffffffffffffffffffffffffffff1690602001909291905050506114dd565b604051808215151515815260200191505060405180910390f35b34801561052f57600080fd5b5061055260048036038101908080356000191690602001909291905050506119ff565b005b34801561056057600080fd5b50610569611bd7565b604051808215151515815260200191505060405180910390f35b6000600754905090565b600060011515600560149054906101000a900460ff161515141515610640576040517f08c379a00000000000000000000000000000000000000000000000000000000081526004018080602001828103825260258152602001807f436f6e74726163742069732063757272656e746c79206e6f74206f706572617481526020017f696f6e616c00000000000000000000000000000000000000000000000000000081525060400191505060405180910390fd5b600a60008373ffffffffffffffffffffffffffffffffffffffff1673ffffffffffffffffffffffffffffffffffffffff168152602001908152602001600020549050803073ffffffffffffffffffffffffffffffffffffffff1631111515610710576040517f08c379a000000000000000000000000000000000000000000000000000000000815260040180806020018281038252601a8152602001807f4e6f7420656e6f75676820636f6e746163742062616c616e636500000000000081525060200191505060405180910390fd5b6000600a60008473ffffffffffffffffffffffffffffffffffffffff1673ffffffffffffffffffffffffffffffffffffffff168152602001908152602001600020819055508173ffffffffffffffffffffffffffffffffffffffff166108fc829081150290604051600060405180830381858888f1935050505015801561079b573d6000803e3d6000fd5b505050565b600060011515600560149054906101000a900460ff161515141515610853576040517f08c379a00000000000000000000000000000000000000000000000000000000081526004018080602001828103825260258152602001807f436f6e74726163742069732063757272656e746c79206e6f74206f706572617481526020017f696f6e616c00000000000000000000000000000000000000000000000000000081525060400191505060405180910390fd5b600860008373ffffffffffffffffffffffffffffffffffffffff1673ffffffffffffffffffffffffffffffffffffffff16815260200190815260200160002060000160009054906101000a900460ff169050919050565b600560009054906101000a900473ffffffffffffffffffffffffffffffffffffffff1673ffffffffffffffffffffffffffffffffffffffff163373ffffffffffffffffffffffffffffffffffffffff1614151561096f576040517f08c379a000000000000000000000000000000000000000000000000000000000815260040180806020018281038252601c8152602001807f43616c6c6572206973206e6f7420636f6e7472616374206f776e65720000000081525060200191505060405180910390fd5b80600560146101000a81548160ff02191690831515021790555050565b60011515600560149054906101000a900460ff161515141515610a3d576040517f08c379a00000000000000000000000000000000000000000000000000000000081526004018080602001828103825260258152602001807f436f6e74726163742069732063757272656e746c79206e6f74206f706572617481526020017f696f6e616c00000000000000000000000000000000000000000000000000000081525060400191505060405180910390fd5b80600860008273ffffffffffffffffffffffffffffffffffffffff1673ffffffffffffffffffffffffffffffffffffffff16815260200190815260200160002060000160009054906101000a900460ff161515610b02576040517f08c379a00000000000000000000000000000000000000000000000000000000081526004018080602001828103825260148152602001807f4169726c696e6520646f6573277420657869737400000000000000000000000081525060200191505060405180910390fd5b816000600860008373ffffffffffffffffffffffffffffffffffffffff1673ffffffffffffffffffffffffffffffffffffffff1681526020019081526020016000209050600015158160020160009054906101000a900460ff1615151480610b7557508060050154816003016000015410155b1515610c0f576040517f08c379a00000000000000000000000000000000000000000000000000000000081526004018080602001828103825260218152602001807f4e65656420617070726f76616c2066726f6d206f74686572204169726c696e6581526020017f730000000000000000000000000000000000000000000000000000000000000081525060400191505060405180910390fd5b6001600860008673ffffffffffffffffffffffffffffffffffffffff1673ffffffffffffffffffffffffffffffffffffffff16815260200190815260200160002060020160016101000a81548160ff02191690831515021790555050505050565b600560009054906101000a900473ffffffffffffffffffffffffffffffffffffffff1673ffffffffffffffffffffffffffffffffffffffff163373ffffffffffffffffffffffffffffffffffffffff16141515610d35576040517f08c379a000000000000000000000000000000000000000000000000000000000815260040180806020018281038252601c8152602001807f43616c6c6572206973206e6f7420636f6e7472616374206f776e65720000000081525060200191505060405180910390fd5b60011515600560149054906101000a900460ff161515141515610de6576040517f08c379a00000000000000000000000000000000000000000000000000000000081526004018080602001828103825260258152602001807f436f6e74726163742069732063757272656e746c79206e6f74206f706572617481526020017f696f6e616c00000000000000000000000000000000000000000000000000000081525060400191505060405180910390fd5b6001600660008373ffffffffffffffffffffffffffffffffffffffff1673ffffffffffffffffffffffffffffffffffffffff16815260200190815260200160002060006101000a81548160ff02191690831515021790555050565b600060011515600560149054906101000a900460ff161515141515610ef4576040517f08c379a00000000000000000000000000000000000000000000000000000000081526004018080602001828103825260258152602001807f436f6e74726163742069732063757272656e746c79206e6f74206f706572617481526020017f696f6e616c00000000000000000000000000000000000000000000000000000081525060400191505060405180910390fd5b600a60008373ffffffffffffffffffffffffffffffffffffffff1673ffffffffffffffffffffffffffffffffffffffff168152602001908152602001600020549050919050565b60025481565b60011515600560149054906101000a900460ff161515141515610ff2576040517f08c379a00000000000000000000000000000000000000000000000000000000081526004018080602001828103825260258152602001807f436f6e74726163742069732063757272656e746c79206e6f74206f706572617481526020017f696f6e616c00000000000000000000000000000000000000000000000000000081525060400191505060405180910390fd5b6060604051908101604052808373ffffffffffffffffffffffffffffffffffffffff16815260200134815260200160025481525060096000836000191660001916815260200190815260200160002060008201518160000160006101000a81548173ffffffffffffffffffffffffffffffffffffffff021916908373ffffffffffffffffffffffffffffffffffffffff16021790555060208201518160010155604082015181600201559050505050565b60045481565b60005481565b60015481565b60011515600560149054906101000a900460ff161515141515611166576040517f08c379a00000000000000000000000000000000000000000000000000000000081526004018080602001828103825260258152602001807f436f6e74726163742069732063757272656e746c79206e6f74206f706572617481526020017f696f6e616c00000000000000000000000000000000000000000000000000000081525060400191505060405180910390fd5b600154600960008360001916600019168152602001908152602001600020600201541415156111b557600454600960008360001916600019168152602001908152602001600020600201819055505b50565b60035481565b600080600060011515600560149054906101000a900460ff161515141515611274576040517f08c379a00000000000000000000000000000000000000000000000000000000081526004018080602001828103825260258152602001807f436f6e74726163742069732063757272656e746c79206e6f74206f706572617481526020017f696f6e616c00000000000000000000000000000000000000000000000000000081525060400191505060405180910390fd5b60096000856000191660001916815260200190815260200160002091506112a960028360010154611bee90919063ffffffff16565b90506112c2826001015482611c0490919063ffffffff16565b92505050919050565b60011515600560149054906101000a900460ff16151514151561137c576040517f08c379a00000000000000000000000000000000000000000000000000000000081526004018080602001828103825260258152602001807f436f6e74726163742069732063757272656e746c79206e6f74206f706572617481526020017f696f6e616c00000000000000000000000000000000000000000000000000000081525060400191505060405180910390fd5b60c0604051908101604052806001151581526020016007548152602001600054600754101515158152602001600015158152602001602060405190810160405280600081525081526020016113f060026113e26001600754611c0490919063ffffffff16565b611bee90919063ffffffff16565b815250600860008373ffffffffffffffffffffffffffffffffffffffff1673ffffffffffffffffffffffffffffffffffffffff16815260200190815260200160002060008201518160000160006101000a81548160ff0219169083151502179055506020820151816001015560408201518160020160006101000a81548160ff02191690831515021790555060608201518160020160016101000a81548160ff02191690831515021790555060808201518160030160008201518160000155505060a082015181600501559050506114d46001600754611c0490919063ffffffff16565b60078190555050565b600082600860008273ffffffffffffffffffffffffffffffffffffffff1673ffffffffffffffffffffffffffffffffffffffff16815260200190815260200160002060000160009054906101000a900460ff1615156115a4576040517f08c379a00000000000000000000000000000000000000000000000000000000081526004018080602001828103825260148152602001807f4169726c696e6520646f6573277420657869737400000000000000000000000081525060200191505060405180910390fd5b60011515600560149054906101000a900460ff161515141515611655576040517f08c379a00000000000000000000000000000000000000000000000000000000081526004018080602001828103825260258152602001807f436f6e74726163742069732063757272656e746c79206e6f74206f706572617481526020017f696f6e616c00000000000000000000000000000000000000000000000000000081525060400191505060405180910390fd5b60001515600860008673ffffffffffffffffffffffffffffffffffffffff1673ffffffffffffffffffffffffffffffffffffffff16815260200190815260200160002060030160010160008573ffffffffffffffffffffffffffffffffffffffff1673ffffffffffffffffffffffffffffffffffffffff16815260200190815260200160002060009054906101000a900460ff161515141515611786576040517f08c379a00000000000000000000000000000000000000000000000000000000081526004018080602001828103825260258152602001807f4169726c696e6520616c726561647920766f746564206279207468697320616381526020017f636f756e7400000000000000000000000000000000000000000000000000000081525060400191505060405180910390fd5b6117df6001600860008773ffffffffffffffffffffffffffffffffffffffff1673ffffffffffffffffffffffffffffffffffffffff16815260200190815260200160002060030160000154611c0490919063ffffffff16565b600860008673ffffffffffffffffffffffffffffffffffffffff1673ffffffffffffffffffffffffffffffffffffffff168152602001908152602001600020600301600001819055506001600860008673ffffffffffffffffffffffffffffffffffffffff1673ffffffffffffffffffffffffffffffffffffffff16815260200190815260200160002060030160010160008573ffffffffffffffffffffffffffffffffffffffff1673ffffffffffffffffffffffffffffffffffffffff16815260200190815260200160002060006101000a81548160ff021916908315150217905550600860008573ffffffffffffffffffffffffffffffffffffffff1673ffffffffffffffffffffffffffffffffffffffff16815260200190815260200160002060050154600860008673ffffffffffffffffffffffffffffffffffffffff1673ffffffffffffffffffffffffffffffffffffffff1681526020019081526020016000206003016000015410600860008673ffffffffffffffffffffffffffffffffffffffff1673ffffffffffffffffffffffffffffffffffffffff16815260200190815260200160002060020160006101000a81548160ff021916908315150217905550600860008573ffffffffffffffffffffffffffffffffffffffff1673ffffffffffffffffffffffffffffffffffffffff16815260200190815260200160002060020160009054906101000a900460ff1691505092915050565b60008060011515600560149054906101000a900460ff161515141515611ab3576040517f08c379a00000000000000000000000000000000000000000000000000000000081526004018080602001828103825260258152602001807f436f6e74726163742069732063757272656e746c79206e6f74206f706572617481526020017f696f6e616c00000000000000000000000000000000000000000000000000000081525060400191505060405180910390fd5b600960008460001916600019168152602001908152602001600020915060025482600201541415611bd257600a60008360000160009054906101000a900473ffffffffffffffffffffffffffffffffffffffff1673ffffffffffffffffffffffffffffffffffffffff1673ffffffffffffffffffffffffffffffffffffffff168152602001908152602001600020549050611b5f611b50846111be565b82611c0490919063ffffffff16565b600a60008460000160009054906101000a900473ffffffffffffffffffffffffffffffffffffffff1673ffffffffffffffffffffffffffffffffffffffff1673ffffffffffffffffffffffffffffffffffffffff1681526020019081526020016000208190555060035482600201819055505b505050565b6000600560149054906101000a900460ff16905090565b60008183811515611bfb57fe5b04905092915050565b60008183019050828110151515611c1757fe5b809050929150505600a165627a7a72305820b9770d25959a74a0733f21df18ca3fdd9759c9917e5fffc7cea17cfa68df938f0029",
  "source": "pragma solidity ^0.4.25;\n\nimport \"../node_modules/openzeppelin-solidity/contracts/math/SafeMath.sol\";\n\ncontract FlightSuretyData {\n    using SafeMath for uint256;\n\n    uint public MAX_AUTO_REGISTERED_AIRLINES = 4;\n\n    uint public INSURANCE_STATUS_UNKNOWN = 0;\n    uint public INSURANCE_STATUS_IN_PROGRESS = 1;\n    uint public INSURANCE_STATUS_PAID = 1;\n    uint public INSURANCE_STATUS_CLOSED = 2;\n\n\n    address private contractOwner;                                      \n    bool private operational = true;                                    \n    mapping (address=>bool) private authorizedCallers;\n\n    struct Airline {\n        bool isExists;\n        uint256 registeredNumber;\n        bool needApprove;\n        bool isFunded;\n        Votes votes;\n        uint256 minVotes;\n    }\n    struct Votes{\n        uint votersCount;\n        mapping(address => bool) voters;\n    }\n\n    uint256 private airlinesCount = 0;\n    mapping(address => Airline) private airlines;\n\n    struct InsuranceInfo{\n        address passenger;\n        uint256 value;\n        uint status;\n    }\n    mapping(bytes32 => InsuranceInfo) private insurances;\n    mapping(address => uint256) private passengerBalances;\n \n    constructor() public {\n        contractOwner = msg.sender;\n    }\n\n    modifier requireIsOperational() {\n        require(operational == true, \"Contract is currently not operational\");\n        _;\n    }\n\n    modifier requireContractOwner() {\n        require(msg.sender == contractOwner, \"Caller is not contract owner\");\n        _;\n    }\n    modifier requireAuthorizedCaller(address contractAddress) {\n         require(authorizedCallers[contractAddress] == true, \"Not Authorized Caller\");\n        _;\n    }\n\n    modifier isAirlineExists(address airlineAddress) {\n        require(airlines[airlineAddress].isExists, \"Airline does't exist\");\n        _;\n    }\n\n    modifier isAirlineApproved(address airlineAddress) {\n        Airline airline = airlines[airlineAddress];\n        require((airline.needApprove == false) || (airline.votes.votersCount >= airline.minVotes), \"Need approval from other Airlines\");\n        _;\n    }\n\n    function isOperational() public view returns (bool) {\n        return operational;\n    }\n\n    function setOperatingStatus(bool mode) external requireContractOwner {\n        operational = mode;\n    }\n\n    function authorizeCaller(address contractAddress) external requireContractOwner requireIsOperational {\n        authorizedCallers[contractAddress] = true;\n    }\n  \n    function getAirlinesCount() public view returns (uint256) {\n        return airlinesCount;\n    }\n    \n    function registerAirline(address airlineAddress) external requireIsOperational{\n        airlines[airlineAddress] = Airline({\n            isExists: true,\n            registeredNumber: airlinesCount,\n            needApprove: airlinesCount >= MAX_AUTO_REGISTERED_AIRLINES,\n            votes: Votes(0),\n            isFunded: false,\n            minVotes: airlinesCount.add(1).div(2)\n        });\n\n        airlinesCount = airlinesCount.add(1);\n    }\n  \n    function voteAirline(address airlineAddress, address voterAddress) external isAirlineExists(airlineAddress) requireIsOperational returns (bool){\n        require(airlines[airlineAddress].votes.voters[voterAddress] == false, \"Airline already voted by this account\");\n\n        airlines[airlineAddress].votes.votersCount = airlines[airlineAddress].votes.votersCount.add(1);\n        airlines[airlineAddress].votes.voters[voterAddress] = true;\n\n        airlines[airlineAddress].needApprove = airlines[airlineAddress].votes.votersCount < airlines[airlineAddress].minVotes;\n        return airlines[airlineAddress].needApprove;\n    }\n\n    function buy(address passenger, bytes32 flightKey) external requireIsOperational payable {\n        insurances[flightKey] = InsuranceInfo({\n            passenger: passenger,\n            value: msg.value,\n            status: INSURANCE_STATUS_IN_PROGRESS\n        });\n    }\n  \n    function creditInsurees(bytes32 flightKey) external requireIsOperational {\n        InsuranceInfo insurance = insurances[flightKey];\n        if (insurance.status == INSURANCE_STATUS_IN_PROGRESS) {\n            uint256 balance = passengerBalances[insurance.passenger];\n            passengerBalances[insurance.passenger] = balance.add(getInsurancePayoutValue(flightKey));\n            insurance.status = INSURANCE_STATUS_PAID;\n        }\n    }\n\n    function closeInsurance(bytes32 flightKey) external requireIsOperational{\n        if (insurances[flightKey].status != INSURANCE_STATUS_UNKNOWN) {\n            insurances[flightKey].status = INSURANCE_STATUS_CLOSED;\n        }\n    }\n\n    function getInsurancePayoutValue(bytes32 flightKey) view public requireIsOperational returns(uint256){\n        InsuranceInfo insurance = insurances[flightKey];\n        uint256 insurancePayoutValue = insurance.value.div(2);\n        return insurancePayoutValue.add(insurance.value);\n    }\n\n    function getPassengerBalance(address passengerAddress) view public requireIsOperational returns(uint256){\n        return passengerBalances[passengerAddress];\n    }\n\n    function pay(address passengerAddress) external requireIsOperational {\n        uint256 balance = passengerBalances[passengerAddress];\n        require(address(this).balance > balance, 'Not enough contact balance');\n        passengerBalances[passengerAddress] = 0;\n        passengerAddress.transfer(balance);\n    }\n \n    function fund(address airlineAddress) payable external requireIsOperational() isAirlineExists(airlineAddress) isAirlineApproved(airlineAddress){\n        airlines[airlineAddress].isFunded = true;\n    }\n\n    function getFlightKey(address airline, string memory flight, uint256 timestamp) pure internal returns (bytes32) {\n        return keccak256(abi.encodePacked(airline, flight, timestamp));\n    }\n\n    function isAirline(address airlineAddress) public view requireIsOperational() returns (bool) {\n        return airlines[airlineAddress].isExists;\n    }\n\n  \n}\n\n",
  "sourcePath": "C:\\Users\\ASUS\\Desktop\\NanoInsurance\\NanoInsurance\\contracts\\FlightSuretyData.sol",
  "compiler": {
    "name": "solc",
    "version": "0.4.26+commit.4563c3fc.Emscripten.clang"
  },
  "schemaVersion": "3.0.2",
  "updatedAt": "2019-09-25T12:29:25.693Z",
  "devdoc": {
    "methods": {}
  },
  "userdoc": {
    "methods": {}
  }
}